:0200000460009A
:100000004643464200000156000000000103030081
:1000100000000000000000000000000000000000E0
:1000200000000000000000000000000000000000D0
:1000300000000000000000000000000000000000C0
:1000400000000000010408000000000000000000A3
:100050000000200000000000000000000000000080
:100060000000000000000000000000000000000090
:100070000000000000000000000000000000000080
:10008000EB04180A063204260000000000000000FD
:10009000050404240000000000000000000000002F
:1000A0000000000000000000000000000000000050
:1000B0000604000000000000000000000000000036
:1000C0000000000000000000000000000000000030
:1000D00020041808000000000000000000000000DC
:1000E0000000000000000000000000000000000010
:1000F0000000000000000000000000000000000000
:10010000D8041808000000000000000000000000F3
:100110000204180804200000000000000000000095
:1001200000000000000000000000000000000000CF
:10013000600400000000000000000000000000005B
:1001400000000000000000000000000000000000AF
:10015000000000000000000000000000000000009F
:10016000000000000000000000000000000000008F
:10017000000000000000000000000000000000007F
:10018000000000000000000000000000000000006F
:10019000000000000000000000000000000000005F
:1001A000000000000000000000000000000000004F
:1001B000000000000000000000000000000000003F
:1001C000000100000010000001000000000000001D
:1001D000000001000000000000000000000000001E
:1001E000000000000000000000000000000000000F
:1001F00000000000000000000000000000000000FF
:10020000FFFFFFFFFFFFFFFFFFFFFFFFFFFFFFFFFE
:10021000FFFFFFFFFFFFFFFFFFFFFFFFFFFFFFFFEE
:10100000D1002043ED15006000000000000000004A
:10101000201000600010006000040160000000006B
:10102000000000600010010000000000FFFFFFFF53
:10103000FFFFFFFFFFFFFFFFFFFFFFFFFFFFFFFFC0
:10104000FFFFFFFFFFFFFFFFFFFFFFFFFFFFFFFFB0
:10105000FFFFFFFFFFFFFFFFFFFFFFFFFFFFFFFFA0
:10106000FFFFFFFFFFFFFFFFFFFFFFFFFFFFFFFF90
:10140000824205D051F8043B40F8043B8242F9D8AF
:10141000704700BF044A05494FF0000342F8043BFF
:101420009142FBD8704700BFC01E0020002700205B
:1014300080B5BFF34F8F00F0EDF8534C534B0820AD
:101440005349C3F85401534AC3F800115248C3F832
:10145000F0405249FFF7D4FF514A52495248FFF732
:10146000CFFF524CFFF7D6FF4FF470004FF0E02152
:1014700000234F4AC1F8880D44F823200133B02BD4
:10148000FAD14C4B80214C4A03F8011B9342FBD10B
:101490004FF0E025494F4A4A4FF0FF31C5F8084D5B
:1014A0000026D5F8243D43F4E023C5F8243DFB692C
:1014B00023F07F0343F04003FB617B6A23F07F034B
:1014C00043F040037B629166D1661167516700F07B
:1014D000A9F83C4B63223C49A3633C4BE3630323E1
:1014E0006A613B4AAE612B61C5F8202DD5F8FC2D11
:1014F000384B42F08072C5F8FC2D1A6842F00102A8
:101500001A605B680B6000F017F9334800F0B8FA16
:10151000F96E324B324A41F44051F9661E60C3F80D
:101520000861C3F81861C3F82861C3F83861936B88
:10153000DB0708D442F615632A4951651365936B9E
:1015400043F001039363264A274C936843F0011349
:10155000936000F055FA00F08FFA00F01BF900F0EC
:101560005BF82368132BFCD900F0ACF92368B3F5C2
:10157000967FFBD300F054F800F050F800F078FAB2
:1015800000F072FA30BFFDE70C0D111300800D4022
:101590001B101820A0C5000000000000A81B006060
:1015A000C01E00204CE1006000000020001C002054
:1015B000193F000000E400E0A0E400E000C00F409C
:1015C00000C00A404153000094260020455300000B
:1015D00000002020001000E00046C3230040084027
:1015E00000400D400000C05698260020054B4FF4E7
:1015F0002A01054A05485A641864054A99639546C4
:10160000FFF716FF00C00A40AFAAAAAA07002000F1
:1016100000000720704700BF704700BF704700BF41
:1016200000BF704710B44FF0E0230021102432486F
:10163000C3F8941DC3F89C4D1124C3F8A00D2F4886
:10164000C3F89C4D1224C3F8A00D2D48C3F89C4D3F
:101650002C4AC3F8A00D2C4C42F015022B48C3F8BD
:101660009C4DC3F8A00D2A4C2A48C3F89C4DC3F8E2
:10167000A00D294CC3F89C2D2848294AC3F8A04D39
:10168000C3F89C0DC3F8A02D02F5A022254C0C3206
:101690002548C3F89C4DC3F8A02D244AC3F89C0DDF
:1016A000C3F8A02D02F14062214C02322148C3F858
:1016B0009C4DC3F8A02D0A32C3F89C0DC3F8A02D91
:1016C00000BF00BF00BF00BF00BF0122C3F8942DC0
:1016D000BFF34F8FBFF36F8FC3F8501FBFF34F8F10
:1016E000BFF36F8FD3F8142D5DF8044B42F44032F2
:1016F000C3F8142D704700BF3F00001025000807F5
:10170000090010000027002013002000210002071C
:1017100014000020250008130900001016002020E6
:1017200027000B1317000040180000602F000B0764
:10173000190000701A000080F0B4154A40274FF4D9
:1017400080314FF480564FF400554FF4404443F23B
:101750004200136913F0020F0ED113F4005F0FD093
:1017600013F4805F0ED0002BF3DA13F4803F0BD11B
:101770005B060BD5F0BC7047946151619061E8E75E
:101780005561E6E75661E4E79161E2E75761E0E71A
:1017900000800D403F4A03203F49F3EE095AD2F83A
:1017A00080304FF0000C9FED3D6A23F001039FED68
:1017B0003C5A30B4C2F88030C2F89000D1F8E01042
:1017C000384DCBB2384C39482B6007EE903A0B0DB0
:1017D000C1F30B21F8EEE77A06EE903A07EE101A05
:1017E000334BB8EEC77A2160F8EEE66A314937EE3E
:1017F000C66A37EEC55A76EEC76A77EEE57A26EE08
:10180000266AC3ED006A25EE265AD2F8803067EECC
:10181000A64AC0ED007AC6EE275A274885EE276A09
:10182000C4EEA76A75EE875AFCEEE55A36EE076AF3
:1018300015EE904ABCEEC66A43EA045376EE877A08
:10184000C2F8803016EE103AD2F89041FCEEE77AFA
:1018500001EA0341214317EE903AC2F89011C3F315
:101860000B03D2F890110B431449C2F89031D2F80F
:10187000803043F00203C2F88030114B80F840C042
:10188000C1F840314FF0E023012230BCC3F80821F9
:10189000704700BF00810D4000441F400000AA4275
:1018A0000000B442842600208026002088260020E4
:1018B0008C2600200000FF0F00E400E0001C002048
:1018C00001410000314B40F6617210B5C3F8202190
:1018D00040F2044400F0C4F82D4A2E49D2F880307A
:1018E0002D4843F00303C2F880302C4BC1F860410F
:1018F00002681A4203D1D1F8A8319A071BD0254AB1
:101900004FF00041244B5963D2F8403143F00203B9
:10191000C2F84031D2F840319B07FBD44FF400307D
:101920004FF0E0211C4B4FF00042C1F88C0219200F
:101930009A6300F0ADF8184A4FF08040154C002132
:1019400090630A20164B11604FF42072C4F8A8016E
:10195000184600F099F84FF4800203464FF48100D6
:1019600040F243111860C4F858311A640D4B0E4A06
:10197000C4F84811C3F804224FF0E0224FF40031BC
:101980000123C2F80C11C4F8403110BD00800D4095
:1019900000C00F4000002E4000900D40001C1E00B3
:1019A00000000020001C0020E942000008B50E4B9A
:1019B0001B6E9B0700D4FBBE72B60C4B00200C4A7A
:1019C000C3F8400103F160430A49A3F55F231164A2
:1019D0009D46BFF34F8F4FF400130748074ADB695A
:1019E00002609B68984700BF00441F4000002E40E3
:1019F00000C00A400300200000802020000012EBFD
:101A0000104BA020104AD96E41F4403110B4D96671
:101A100040F23764D96E41F44071D96654649064E1
:101A2000936C1B06FCD4094A40F23761A023516431
:101A30009364936C13F08003FBD1054A13705DF837
:101A4000044B704700C00F4000400C4000800C4029
:101A5000CB260020F8B500BFF8BC08BC9E467047F6
:101A60005FF800F0594A00005FF800F08D38000080
:101A70005FF800F05D7F00005FF800F0093E0000B5
:101A80005FF800F0D53200005FF800F0D17200007E
:101A90005FF800F0C535000049010000513000003A
:101AA00016035500530042002000530065007200E9
:101AB000690061006C0000001803540065006500B7
:101AC0006E00730079006400750069006E006F009D
:101AD0000403090409026200030100C032080B007C
:101AE00002020201000904000001020201000524B3
:101AF000001001052401010104240206052406004A
:101B0000010705820310001009040100020A000009
:101B10000007050302400000070584024000000999
:101B200004020002FF6AFF0007058102400001076E
:101B3000050102400001000009026200030100C02B
:101B400032080B0002020201000904000001020237
:101B500001000524001001052401010104240206EE
:101B60000524060001070582031000050904010091
:101B7000020A0000000705030200020007058402B4
:101B80000002000904020002FF6AC7000705810283
:101B90000002010705010200020100000A0600021E
:081BA000EF020140010000000A
:101BA800000000000000000000000000000000002D
:101BB800000000000000000000000000000000001D
:101BC800F8B54FF084439D695A6915400DD0254FEB
:101BD80001269D6195FAA5F4B4FA84F457F82430E7
:101BE80006FA04F49847A543F4D11F4B9D695A6936
:101BF80015400DD01D4F01269D6195FAA5F4B4FA44
:101C080084F457F8243006FA04F49847A543F4D12D
:101C1800174B9D695A6915400DD0164F01269D61D5
:101C280095FAA5F4B4FA84F457F8243006FA04F4C3
:101C38009847A543F4D1104B9D695A6915400DD0BA
:101C48000E4F01269D6195FAA5F4B4FA84F457F86D
:101C5800243006FA04F49847A543F4D1BFF34F8F14
:101C6800F8BD00BF4017002000400042C017002008
:101C7800008000424018002000C00042C018002028
:101C88000348044B834202D0034B03B11847704703
:101C9800C01E0020C01E0020000000000548064BA2
:101CA8001B1AD90F01EBA301491002D0034B03B152
:101CB80018477047C01E0020C01E0020000000000A
:101CC80010B5064C237843B9FFF7DAFF044B13B17C
:101CD8000448AFF300800123237010BD8820002042
:101CE800000000000010016008B5044B1BB1044956
:101CF8000448AFF30080BDE80840CFE700000000CB
:101D08008C20002000100160214B1A68D2E90010D5
:101D1800D3680968006810B41842946801EA04019D
:101D28002ED0137C03F00303D9B943F008039908B4
:101D3800013B11740D2B0BD8DFE803F00D071C07CE
:101D48000A160D0D160A071C070D5369013B53614E
:101D58005DF8044B704753695DF8044B01335361D8
:101D6800704743F00403E0E753695DF8044B023B16
:101D78005361704753695DF8044B023353617047F0
:101D8800137C03F003030029D1D043F00403CEE70A
:101D980014250020214B5A6ED2E90010D368096837
:101DA800006810B41842946801EA04012ED0137C2C
:101DB80003F00303D9B943F008039908013B1174F0
:101DC8000D2B0BD8DFE803F00D071C070A160D0DC5
:101DD800160A071C070D5369013B53615DF8044B54
:101DE800704753695DF8044B01335361704743F002
:101DF8000403E0E753695DF8044B023B5361704705
:101E080053695DF8044B023353617047137C03F048
:101E180003030029D1D043F00403CEE714250020A2
:101E2800214B9A6ED2E90010D3680968006810B493
:101E38001842946801EA04012ED0137C03F00303CE
:101E4800D9B943F008039908013B11740D2B0BD83D
:101E5800DFE803F00D071C070A160D0D160A071C0C
:101E6800070D5369013B53615DF8044B7047536993
:101E78005DF8044B01335361704743F00403E0E716
:101E880053695DF8044B023B5361704753695DF831
:101E9800044B023353617047137C03F0030300299A
:101EA800D1D043F00403CEE714250020214BDA6E8D
:101EB800D2E90010D3680968006810B41842946821
:101EC80001EA04012ED0137C03F00303D9B943F0CF
:101ED80008039908013B11740D2B0BD8DFE803F0B8
:101EE8000D071C070A160D0D160A071C070D536966
:101EF800013B53615DF8044B704753695DF8044B2F
:101F080001335361704743F00403E0E753695DF818
:101F1800044B023B5361704753695DF8044B02332D
:101F280053617047137C03F003030029D1D043F0B9
:101F38000403CEE714250020214B1A6FD2E90010C4
:101F4800D3680968006810B41842946801EA04016B
:101F58002ED0137C03F00303D9B943F00803990882
:101F6800013B11740D2B0BD8DFE803F00D071C079C
:101F78000A160D0D160A071C070D5369013B53611C
:101F88005DF8044B704753695DF8044B01335361A6
:101F9800704743F00403E0E753695DF8044B023BE4
:101FA8005361704753695DF8044B023353617047BE
:101FB800137C03F003030029D1D043F00403CEE7D8
:101FC80014250020214B5A6FD2E90010D368096804
:101FD800006810B41842946801EA04012ED0137CFA
:101FE80003F00303D9B943F008039908013B1174BE
:101FF8000D2B0BD8DFE803F00D071C070A160D0D93
:10200800160A071C070D5369013B53615DF8044B21
:10201800704753695DF8044B01335361704743F0CF
:102028000403E0E753695DF8044B023B53617047D2
:1020380053695DF8044B023353617047137C03F016
:1020480003030029D1D043F00403CEE71425002070
:10205800214B9A6FD2E90010D3680968006810B460
:102068001842946801EA04012ED0137C03F003039C
:10207800D9B943F008039908013B11740D2B0BD80B
:10208800DFE803F00D071C070A160D0D160A071CDA
:10209800070D5369013B53615DF8044B7047536961
:1020A8005DF8044B01335361704743F00403E0E7E4
:1020B80053695DF8044B023B5361704753695DF8FF
:1020C800044B023353617047137C03F00303002968
:1020D800D1D043F00403CEE714250020214BDA6F5A
:1020E800D2E90010D3680968006810B418429468EF
:1020F80001EA04012ED0137C03F00303D9B943F09D
:1021080008039908013B11740D2B0BD8DFE803F085
:102118000D071C070A160D0D160A071C070D536933
:10212800013B53615DF8044B704753695DF8044BFC
:1021380001335361704743F00403E0E753695DF8E6
:10214800044B023B5361704753695DF8044B0233FB
:1021580053617047137C03F003030029D1D043F087
:102168000403CEE714250020224BD3F88020D2E9BF
:102178000010D3680968006810B41842946801EA2E
:1021880004012ED0137C03F00303D9B943F00803EC
:102198009908013B11740D2B0BD8DFE803F00D07EC
:1021A8001C070A160D0D160A071C070D5369013B7B
:1021B80053615DF8044B704753695DF8044B013374
:1021C8005361704743F00403E0E753695DF8044B3B
:1021D800023B5361704753695DF8044B0233536106
:1021E8007047137C03F003030029D1D043F00403A4
:1021F800CEE700BF14250020224BD3F88420D2E973
:102208000010D3680968006810B41842946801EA9D
:1022180004012ED0137C03F00303D9B943F008035B
:102228009908013B11740D2B0BD8DFE803F00D075B
:102238001C070A160D0D160A071C070D5369013BEA
:1022480053615DF8044B704753695DF8044B0133E3
:102258005361704743F00403E0E753695DF8044BAA
:10226800023B5361704753695DF8044B0233536175
:102278007047137C03F003030029D1D043F0040313
:10228800CEE700BF14250020224BD3F88820D2E9DE
:102298000010D3680968006810B41842946801EA0D
:1022A80004012ED0137C03F00303D9B943F00803CB
:1022B8009908013B11740D2B0BD8DFE803F00D07CB
:1022C8001C070A160D0D160A071C070D5369013B5A
:1022D80053615DF8044B704753695DF8044B013353
:1022E8005361704743F00403E0E753695DF8044B1A
:1022F800023B5361704753695DF8044B02335361E5
:102308007047137C03F003030029D1D043F0040382
:10231800CEE700BF14250020224BD3F88C20D2E949
:102328000010D3680968006810B41842946801EA7C
:1023380004012ED0137C03F00303D9B943F008033A
:102348009908013B11740D2B0BD8DFE803F00D073A
:102358001C070A160D0D160A071C070D5369013BC9
:1023680053615DF8044B704753695DF8044B0133C2
:102378005361704743F00403E0E753695DF8044B89
:10238800023B5361704753695DF8044B0233536154
:102398007047137C03F003030029D1D043F00403F2
:1023A800CEE700BF14250020224BD3F89020D2E9B5
:1023B8000010D3680968006810B41842946801EAEC
:1023C80004012ED0137C03F00303D9B943F00803AA
:1023D8009908013B11740D2B0BD8DFE803F00D07AA
:1023E8001C070A160D0D160A071C070D5369013B39
:1023F80053615DF8044B704753695DF8044B013332
:102408005361704743F00403E0E753695DF8044BF8
:10241800023B5361704753695DF8044B02335361C3
:102428007047137C03F003030029D1D043F0040361
:10243800CEE700BF14250020224BD3F89420D2E920
:102448000010D3680968006810B41842946801EA5B
:1024580004012ED0137C03F00303D9B943F0080319
:102468009908013B11740D2B0BD8DFE803F00D0719
:102478001C070A160D0D160A071C070D5369013BA8
:1024880053615DF8044B704753695DF8044B0133A1
:102498005361704743F00403E0E753695DF8044B68
:1024A800023B5361704753695DF8044B0233536133
:1024B8007047137C03F003030029D1D043F00403D1
:1024C800CEE700BF14250020224BD3F89820D2E98C
:1024D8000010D3680968006810B41842946801EACB
:1024E80004012ED0137C03F00303D9B943F0080389
:1024F8009908013B11740D2B0BD8DFE803F00D0789
:102508001C070A160D0D160A071C070D5369013B17
:1025180053615DF8044B704753695DF8044B013310
:102528005361704743F00403E0E753695DF8044BD7
:10253800023B5361704753695DF8044B02335361A2
:102548007047137C03F003030029D1D043F0040340
:10255800CEE700BF14250020224BD3F89C20D2E9F7
:102568000010D3680968006810B41842946801EA3A
:1025780004012ED0137C03F00303D9B943F00803F8
:102588009908013B11740D2B0BD8DFE803F00D07F8
:102598001C070A160D0D160A071C070D5369013B87
:1025A80053615DF8044B704753695DF8044B013380
:1025B8005361704743F00403E0E753695DF8044B47
:1025C800023B5361704753695DF8044B0233536112
:1025D8007047137C03F003030029D1D043F00403B0
:1025E800CEE700BF14250020214B5A68D2E900101D
:1025F800D3680968006810B41842946801EA0401B5
:102608002ED0137C03F00303D9B943F008039908CB
:10261800013B11740D2B0BD8DFE803F00D071C07E5
:102628000A160D0D160A071C070D5369013B536165
:102638005DF8044B704753695DF8044B01335361EF
:10264800704743F00403E0E753695DF8044B023B2D
:102658005361704753695DF8044B02335361704707
:10266800137C03F003030029D1D043F00403CEE721
:1026780014250020214B9A68D2E90010D368096814
:10268800006810B41842946801EA04012ED0137C43
:1026980003F00303D9B943F008039908013B117407
:1026A8000D2B0BD8DFE803F00D071C070A160D0DDC
:1026B800160A071C070D5369013B53615DF8044B6B
:1026C800704753695DF8044B01335361704743F019
:1026D8000403E0E753695DF8044B023B536170471C
:1026E80053695DF8044B023353617047137C03F060
:1026F80003030029D1D043F00403CEE714250020BA
:10270800214BDA68D2E90010D3680968006810B470
:102718001842946801EA04012ED0137C03F00303E5
:10272800D9B943F008039908013B11740D2B0BD854
:10273800DFE803F00D071C070A160D0D160A071C23
:10274800070D5369013B53615DF8044B70475369AA
:102758005DF8044B01335361704743F00403E0E72D
:1027680053695DF8044B023B5361704753695DF848
:10277800044B023353617047137C03F003030029B1
:10278800D1D043F00403CEE714250020214B1A6969
:10279800D2E90010D3680968006810B41842946838
:1027A80001EA04012ED0137C03F00303D9B943F0E6
:1027B80008039908013B11740D2B0BD8DFE803F0CF
:1027C8000D071C070A160D0D160A071C070D53697D
:1027D800013B53615DF8044B704753695DF8044B46
:1027E80001335361704743F00403E0E753695DF830
:1027F800044B023B5361704753695DF8044B023345
:1028080053617047137C03F003030029D1D043F0D0
:102818000403CEE714250020214B5A69D2E90010A1
:10282800D3680968006810B41842946801EA040182
:102838002ED0137C03F00303D9B943F00803990899
:10284800013B11740D2B0BD8DFE803F00D071C07B3
:102858000A160D0D160A071C070D5369013B536133
:102868005DF8044B704753695DF8044B01335361BD
:10287800704743F00403E0E753695DF8044B023BFB
:102888005361704753695DF8044B023353617047D5
:10289800137C03F003030029D1D043F00403CEE7EF
:1028A80014250020214B9A69D2E90010D3680968E1
:1028B800006810B41842946801EA04012ED0137C11
:1028C80003F00303D9B943F008039908013B1174D5
:1028D8000D2B0BD8DFE803F00D071C070A160D0DAA
:1028E800160A071C070D5369013B53615DF8044B39
:1028F800704753695DF8044B01335361704743F0E7
:102908000403E0E753695DF8044B023B53617047E9
:1029180053695DF8044B023353617047137C03F02D
:1029280003030029D1D043F00403CEE71425002087
:10293800214BDA69D2E90010D3680968006810B43D
:102948001842946801EA04012ED0137C03F00303B3
:10295800D9B943F008039908013B11740D2B0BD822
:10296800DFE803F00D071C070A160D0D160A071CF1
:10297800070D5369013B53615DF8044B7047536978
:102988005DF8044B01335361704743F00403E0E7FB
:1029980053695DF8044B023B5361704753695DF816
:1029A800044B023353617047137C03F0030300297F
:1029B800D1D043F00403CEE714250020214B1A6A36
:1029C800D2E90010D3680968006810B41842946806
:1029D80001EA04012ED0137C03F00303D9B943F0B4
:1029E80008039908013B11740D2B0BD8DFE803F09D
:1029F8000D071C070A160D0D160A071C070D53694B
:102A0800013B53615DF8044B704753695DF8044B13
:102A180001335361704743F00403E0E753695DF8FD
:102A2800044B023B5361704753695DF8044B023312
:102A380053617047137C03F003030029D1D043F09E
:102A48000403CEE714250020214B5A6AD2E900106E
:102A5800D3680968006810B41842946801EA040150
:102A68002ED0137C03F00303D9B943F00803990867
:102A7800013B11740D2B0BD8DFE803F00D071C0781
:102A88000A160D0D160A071C070D5369013B536101
:102A98005DF8044B704753695DF8044B013353618B
:102AA800704743F00403E0E753695DF8044B023BC9
:102AB8005361704753695DF8044B023353617047A3
:102AC800137C03F003030029D1D043F00403CEE7BD
:102AD80014250020214B9A6AD2E90010D3680968AE
:102AE800006810B41842946801EA04012ED0137CDF
:102AF80003F00303D9B943F008039908013B1174A3
:102B08000D2B0BD8DFE803F00D071C070A160D0D77
:102B1800160A071C070D5369013B53615DF8044B06
:102B2800704753695DF8044B01335361704743F0B4
:102B38000403E0E753695DF8044B023B53617047B7
:102B480053695DF8044B023353617047137C03F0FB
:102B580003030029D1D043F00403CEE71425002055
:102B6800214BDA6AD2E90010D3680968006810B40A
:102B78001842946801EA04012ED0137C03F0030381
:102B8800D9B943F008039908013B11740D2B0BD8F0
:102B9800DFE803F00D071C070A160D0D160A071CBF
:102BA800070D5369013B53615DF8044B7047536946
:102BB8005DF8044B01335361704743F00403E0E7C9
:102BC80053695DF8044B023B5361704753695DF8E4
:102BD800044B023353617047137C03F0030300294D
:102BE800D1D043F00403CEE714250020214B1A6B03
:102BF800D2E90010D3680968006810B418429468D4
:102C080001EA04012ED0137C03F00303D9B943F081
:102C180008039908013B11740D2B0BD8DFE803F06A
:102C28000D071C070A160D0D160A071C070D536918
:102C3800013B53615DF8044B704753695DF8044BE1
:102C480001335361704743F00403E0E753695DF8CB
:102C5800044B023B5361704753695DF8044B0233E0
:102C680053617047137C03F003030029D1D043F06C
:102C78000403CEE714250020214B5A6BD2E900103B
:102C8800D3680968006810B41842946801EA04011E
:102C98002ED0137C03F00303D9B943F00803990835
:102CA800013B11740D2B0BD8DFE803F00D071C074F
:102CB8000A160D0D160A071C070D5369013B5361CF
:102CC8005DF8044B704753695DF8044B0133536159
:102CD800704743F00403E0E753695DF8044B023B97
:102CE8005361704753695DF8044B02335361704771
:102CF800137C03F003030029D1D043F00403CEE78B
:102D080014250020214B9A6BD2E90010D36809687A
:102D1800006810B41842946801EA04012ED0137CAC
:102D280003F00303D9B943F008039908013B117470
:102D38000D2B0BD8DFE803F00D071C070A160D0D45
:102D4800160A071C070D5369013B53615DF8044BD4
:102D5800704753695DF8044B01335361704743F082
:102D68000403E0E753695DF8044B023B5361704785
:102D780053695DF8044B023353617047137C03F0C9
:102D880003030029D1D043F00403CEE71425002023
:102D9800214BDA6BD2E90010D3680968006810B4D7
:102DA8001842946801EA04012ED0137C03F003034F
:102DB800D9B943F008039908013B11740D2B0BD8BE
:102DC800DFE803F00D071C070A160D0D160A071C8D
:102DD800070D5369013B53615DF8044B7047536914
:102DE8005DF8044B01335361704743F00403E0E797
:102DF80053695DF8044B023B5361704753695DF8B2
:102E0800044B023353617047137C03F0030300291A
:102E1800D1D043F00403CEE714250020214B1A6CCF
:102E2800D2E90010D3680968006810B418429468A1
:102E380001EA04012ED0137C03F00303D9B943F04F
:102E480008039908013B11740D2B0BD8DFE803F038
:102E58000D071C070A160D0D160A071C070D5369E6
:102E6800013B53615DF8044B704753695DF8044BAF
:102E780001335361704743F00403E0E753695DF899
:102E8800044B023B5361704753695DF8044B0233AE
:102E980053617047137C03F003030029D1D043F03A
:102EA8000403CEE714250020214B5A6CD2E9001008
:102EB800D3680968006810B41842946801EA0401EC
:102EC8002ED0137C03F00303D9B943F00803990803
:102ED800013B11740D2B0BD8DFE803F00D071C071D
:102EE8000A160D0D160A071C070D5369013B53619D
:102EF8005DF8044B704753695DF8044B0133536127
:102F0800704743F00403E0E753695DF8044B023B64
:102F18005361704753695DF8044B0233536170473E
:102F2800137C03F003030029D1D043F00403CEE758
:102F380014250020214B9A6CD2E90010D368096847
:102F4800006810B41842946801EA04012ED0137C7A
:102F580003F00303D9B943F008039908013B11743E
:102F68000D2B0BD8DFE803F00D071C070A160D0D13
:102F7800160A071C070D5369013B53615DF8044BA2
:102F8800704753695DF8044B01335361704743F050
:102F98000403E0E753695DF8044B023B5361704753
:102FA80053695DF8044B023353617047137C03F097
:102FB80003030029D1D043F00403CEE714250020F1
:102FC800214BDA6CD2E90010D3680968006810B4A4
:102FD8001842946801EA04012ED0137C03F003031D
:102FE800D9B943F008039908013B11740D2B0BD88C
:102FF800DFE803F00D071C070A160D0D160A071C5B
:10300800070D5369013B53615DF8044B70475369E1
:103018005DF8044B01335361704743F00403E0E764
:1030280053695DF8044B023B5361704753695DF87F
:10303800044B023353617047137C03F003030029E8
:10304800D1D043F00403CEE714250020214B1A6D9C
:10305800D2E90010D3680968006810B4184294686F
:1030680001EA04012ED0137C03F00303D9B943F01D
:1030780008039908013B11740D2B0BD8DFE803F006
:103088000D071C070A160D0D160A071C070D5369B4
:10309800013B53615DF8044B704753695DF8044B7D
:1030A80001335361704743F00403E0E753695DF867
:1030B800044B023B5361704753695DF8044B02337C
:1030C80053617047137C03F003030029D1D043F008
:1030D8000403CEE714250020214B5A6DD2E90010D5
:1030E800D3680968006810B41842946801EA0401BA
:1030F8002ED0137C03F00303D9B943F008039908D1
:10310800013B11740D2B0BD8DFE803F00D071C07EA
:103118000A160D0D160A071C070D5369013B53616A
:103128005DF8044B704753695DF8044B01335361F4
:10313800704743F00403E0E753695DF8044B023B32
:103148005361704753695DF8044B0233536170470C
:10315800137C03F003030029D1D043F00403CEE726
:1031680014250020214B9A6DD2E90010D368096814
:10317800006810B41842946801EA04012ED0137C48
:1031880003F00303D9B943F008039908013B11740C
:103198000D2B0BD8DFE803F00D071C070A160D0DE1
:1031A800160A071C070D5369013B53615DF8044B70
:1031B800704753695DF8044B01335361704743F01E
:1031C8000403E0E753695DF8044B023B5361704721
:1031D80053695DF8044B023353617047137C03F065
:1031E80003030029D1D043F00403CEE714250020BF
:1031F800214BDA6DD2E90010D3680968006810B471
:103208001842946801EA04012ED0137C03F00303EA
:10321800D9B943F008039908013B11740D2B0BD859
:10322800DFE803F00D071C070A160D0D160A071C28
:10323800070D5369013B53615DF8044B70475369AF
:103248005DF8044B01335361704743F00403E0E732
:1032580053695DF8044B023B5361704753695DF84D
:10326800044B023353617047137C03F003030029B6
:10327800D1D043F00403CEE714250020214B1A6E69
:10328800D2E90010D3680968006810B4184294683D
:1032980001EA04012ED0137C03F00303D9B943F0EB
:1032A80008039908013B11740D2B0BD8DFE803F0D4
:1032B8000D071C070A160D0D160A071C070D536982
:1032C800013B53615DF8044B704753695DF8044B4B
:1032D80001335361704743F00403E0E753695DF835
:1032E800044B023B5361704753695DF8044B02334A
:1032F80053617047137C03F003030029D1D043F0D6
:103308000403CEE7142500200B4610B5272800F249
:103318009B81DFE810F0900186017D0174016B014B
:1033280062015901500147013E0135012C01230179
:103338001A0111010801FF00F600ED00E400DB00AE
:10334800D200C900C000B700AE00A5009C009300E1
:103358008A00810078006E0064005A005000460020
:103368003C0032002800B94C0422B9492720C4F88F
:103378009C3001F0D9FF012010BDB44C0422B5499E
:103388002620C4F8983001F0CFFF012010BDAF4CC3
:103398000422B1492520C4F8943001F0C5FF01206A
:1033A80010BDAA4C0422AD492420C4F8903001F085
:1033B800BBFF012010BDA54C0422A9492320C4F855
:1033C8008C3001F0B1FF012010BDA04C0422A549AA
:1033D8002220C4F8883001F0A7FF012010BD9B4CC3
:1033E8000422A1492120C4F8843001F09DFF012066
:1033F80010BD964C04229D492020C4F8803001F06D
:1034080093FF012010BD914C042299491F20E367C6
:1034180001F08AFF012010BD8C4C042295491E2022
:10342800A36701F081FF012010BD884C0422924956
:103438001D20636701F078FF012010BD834C042232
:103448008E491C20236701F06FFF012010BD7F4CBF
:1034580004228B491B20E36601F066FF012010BDA2
:103468007A4C042287491A20A36601F05DFF0120E7
:1034780010BD764C042284491920636601F054FF7C
:10348800012010BD714C042280491820236601F0E8
:103498004BFF012010BD6D4C04227D491720E365C8
:1034A80001F042FF012010BD684C04227949162022
:1034B800A36501F039FF012010BD644C0422764950
:1034C8001520636501F030FF012010BD5F4C042218
:1034D80072491420236501F027FF012010BD5B4CC1
:1034E80004226F491320E36401F01EFF012010BD80
:1034F800564C04226B491220A36401F015FF0120E9
:1035080010BD524C042268491120636401F00CFF7D
:10351800012010BD4D4C042264491020236401F0A1
:1035280003FF012010BD494C042261490F20E363C9
:1035380001F0FAFE012010BD444C04225D490E2022
:10354800A36301F0F1FE012010BD404C04225A494A
:103558000D20636301F0E8FE012010BD3B4C0422FE
:1035680056490C20236301F0DFFE012010BD374CC3
:10357800042253490B20E36201F0D6FE012010BD5E
:10358800324C04224F490A20A36201F0CDFE0120EB
:1035980010BD2E4C04224C490920636201F0C4FE80
:1035A800012010BD294C042248490820236201F05B
:1035B800BBFE012010BD254C042245490720E361CC
:1035C80001F0B2FE012010BD204C04224149062022
:1035D800A36101F0A9FE012010BD1C4C04223E4944
:1035E8000520636101F0A0FE012010BD0422174CE4
:1035F8003A491046236101F097FE012010BD134C93
:10360800042237490320E36001F08EFE012010BD3B
:103618000E4C042233490220A36001F085FE0120EC
:1036280010BD0446094804222F494360012001F0D7
:103638007BFE204610BD054C04222C490020236047
:1036480001F072FE012010BD002010BD14250020DD
:10365800B9090000290900009908000009080000BC
:1036680079070000E906000059060000C9050000B6
:103678003D050000B1040000250400009903000086
:103688000D03000081020000F5010000DD160000B6
:1036980051160000C515000039150000AD140000D2
:1036A8002114000095130000091300007D1200008A
:1036B800F111000065110000D91000004D10000044
:1036C800C10F0000350F0000A90E00001D0E0000FC
:1036D800910D0000050D0000790C0000ED0B0000B5
:1036E800610B0000D50A0000490A000069010000CA
:1036F8002DE9F0410F46164604460221384601F0EE
:10370800D9FD0221304601F0D5FD224B3A0122486D
:103718003101DFF88CC053F8028003EB0712C4F8BC
:103728000080D2F80CE003EB061259580023C4F8C5
:1037380008E0D2686361194BE26045681B68616004
:10374800ACFB033C4FF4FA634FEA9C4C03FB0CFCC4
:1037580043685B1B9C45FBD8D8F80030384609689D
:103768001EEA030F14BF012300230A42214618BF93
:1037780043F002032374FFF7C7FD03462146304692
:103788002376FFF7C1FD227E0346204613442376A5
:10379800BDE8F08144090020001000E01017002067
:1037A80083DE1B43B0EEC07B38B5FDEEC77B40F22D
:1037B800FF3417EE905AAC42A8BF2C46631E622B0A
:1037C80013D935B3B5EEC00BF1EE10FA13DD0121B4
:1037D800022001F045FD0021042001F041FD2146B1
:1037E8000620BDE8384002F003B8B5EEC00B6424EB
:1037F800F1EE10FAEBDC0021022001F031FD01218D
:10380800042001F02DFD21460620BDE8384001F0D6
:10381800EFBF17EE901A022001F022FD294604207E
:1038280001F01EFD29460620BDE8384001F0E0BF42
:10383800B0EEC07B38B5FDEEC77B40F2FF3417EE23
:10384800905AAC42A8BF2C46631E622B13D935B3DD
:10385800B5EEC00BF1EE10FA13DD0121072001F0DF
:10386800FFFC0021082001F0FBFC21460A20BDE8EE
:10387800384001F0BDBFB5EEC00B6424F1EE10FA7C
:10388800EBDC0021072001F0EBFC0121082001F00E
:10389800E7FC21460A20BDE8384001F0A9BF17EE31
:1038A800901A072001F0DCFC2946082001F0D8FC1A
:1038B80029460A20BDE8384001F09ABF10B500211A
:1038C800022001F0CDFC002104207C4C01F0C8FC52
:1038D8000021062001F08CFF0021072001F0C0FC28
:1038E8000021082001F0BCFC00210A2001F080FF23
:1038F8000021092001F0B4FC00210C2001F0B0FCEB
:103908006F4A00236F48117E23700129036039D95B
:1039180072B6536962B66C4A127802B15B4207EE1E
:10392800903A9FED6A6A6A4AB8EEE77ADFED696A0B
:10393800137E6949C7EE067A012B77EEA77A67EE00
:10394800A67AC1ED007A30D972B6536962B6634A75
:10395800127802B15B4207EE903A9FED616ADFEDA3
:103968005D6A0023B8EEE77A5E4A5F485F49C7EEB2
:10397800067A03600B6077EEA77A67EEA67AC2ED47
:10398800007A10BD72B6D2E90034D2E902101B6881
:1039980024681940044245D0137C03F0030309B19D
:1039A80043F0040343F0080342E072B6D2E900345E
:1039B800D2E902101B6824681940044208D0137C1D
:1039C80003F0030309B143F0040343F0080305E0DF
:1039D800137C03F0030309B143F004039908013B86
:1039E80011740D2BB1D801A151F823F0F51E000078
:1039F800ED1E0000151F0000ED1E0000AB1D0000AD
:103A08000D1F0000F51E0000F51E00000D1F000030
:103A1800AB1D0000ED1E0000151F0000ED1E00008C
:103A2800F51E0000137C03F0030309B143F00403FF
:103A38009908013B11740D2B3FF66BAF01A151F8AA
:103A480023F000BFE51E0000DD1E0000051F00007A
:103A5800DD1E0000731D0000FD1E0000E51E0000B5
:103A6800E51E0000FD1E0000731D0000DD1E0000A5
:103A7800051F0000DD1E0000E51E00005369013B24
:103A8800536147E753690133536143E75369013B86
:103A980053615BE753690133536157E75369023B4D
:103AA800536137E753690233536133E75369023B84
:103AB80053614BE753690233536147E7CC26002033
:103AC800EC250020E8250020C62600200000CC4474
:103AD80008260020DB0F4940A42600209219002068
:103AE800EC51E843A8260020382600203C26002078
:103AF8008D4B8E4819680368CB1A132B00D8704772
:103B080010B58B4C002301600A222068091A8948E5
:103B180001F0EAF82C2003F0C1F8874A137E012B44
:103B280061D972B6536962B6844A127802B15B42AF
:103B380007EE903ADFED826A9FED827A0521F8EE72
:103B4800E77A7C4887EEA60A30EE000A20EE070ADC
:103B5800B7EEC00A01F0DCF82C2003F09FF87A4A8F
:103B6800137E012B74D972B6536962B6774A1278FC
:103B780002B15B4207EE903ADFED756A9FED717A0C
:103B88000521F8EEE77A6B4887EEA60A30EE000AC0
:103B980020EE070AB7EEC00A01F0BAF82C2003F0AD
:103BA8007DF86C4B0521634893ED000AB7EEC00A17
:103BB80001F0AEF82C2003F071F8674B05215D4841
:103BC80093ED000AB7EEC00A01F0A2F82C2003F02A
:103BD80065F8624B5748196801F05EF85548BDE82A
:103BE800104001F065B872B6D2E90010D2E902437C
:103BF800096800682140184268D0137C03F0030369
:103C080000297BD143F008039908013B11740D2B5F
:103C180088D801A151F823F0552100004D2100005A
:103C2800692100004D210000851F0000712100005E
:103C3800552100005521000071210000851F00005A
:103C48004D210000692100004D2100005521000090
:103C580072B6D2E90010D2E902430968006821402F
:103C680018422BD0137C03F00303002949D143F0F9
:103C780008039908013B11740D2B3FF675AF01A19C
:103C880051F823F0452100003D210000812100006A
:103C98003D210000C91F00007921000045210000D6
:103CA8004521000079210000C91F00003D210000C6
:103CB800812100003D21000045210000137C03F014
:103CC80003030029D5D043F00403D2E7137C03F0A3
:103CD8000303002998D043F0040395E75369013B97
:103CE800536142E75369013353613EE75369013B2E
:103CF800536118E753690133536114E743F0040330
:103D080080E743F00403B2E75369023353610AE7DB
:103D18005369023B536106E75369023B536124E749
:103D280053690233536120E798260020402600207B
:103D3800A026002014170020EC250020C62600200D
:103D48000000CC44DB0F49400826002092190020CF
:103D5800EC51E843A4260020A8260020E8250020EE
:103D6800B5EEC00B38B5F1EE10FA2DED048B24D961
:103D7800BF4CB0EE408B2368012B24D000210220D9
:103D880001F06EFA0021042001F06AFA00210620F1
:103D980001F02EFD2368022B5CD00021072001F0E2
:103DA8005FFA0021082001F05BFA00210A20BDEC2F
:103DB800048BBDE8384001F01BBDAD4C2368012BD6
:103DC8009FEDA98BDAD1AB4AAB49137E91ED009AEE
:103DD800012B40F2AD8072B6536962B6A74A1278D9
:103DE800002A7BD107EE903A9FEDA56ADFEDA56A20
:103DF800F8EEE77AA44B87EE867AD3ED007A37EEB1
:103E0800077AA7EE669AB0EEC97AB4EEE77AF1EED1
:103E180010FA7FD99D4DB7EEC96A9D4995ED007A94
:103E28009C4A39EE477A9C4B91ED004BB7EEC77A26
:103E38001B7892ED005B27EE047B87EE080BA6EE5D
:103E4800050B002B51D1FFF7ADFC236885ED009AD7
:103E5800022BA2D1914A9249137E91ED009A012B2F
:103E680079D972B6536962B68E4A1278C2BB07EE28
:103E7800903A9FED8D6ADFED836AF8EEE77A824B20
:103E880087EE867AD3ED007A37EE077AA7EE669A40
:103E9800B0EEC97AB4EEE77AF1EE10FA28D9834C7D
:103EA800B7EEC96A824994ED007A824A39EE477AB8
:103EB800814B91ED004BB7EEC77A1B7892ED005B12
:103EC80027EE047B87EE080BA6EE050B53B9FFF728
:103ED800AFFC84ED009ABDEC048B38BD5B4281E7F2
:103EE8005B42C4E7B1EE400BF1E7B1EE400BAAE745
:103EF8000021072001F0B4F96C4C0021082001F0E2
:103F0800AFF900210A2001F073FC84ED009ABDECA2
:103F1800048B38BD0021022001F0A2F90021042001
:103F28005A4D01F09DF90021062001F061FC8CE753
:103F380072B6D2E900109368096800681940D3681E
:103F4800184247D0137C03F0030309B143F004037C
:103F580043F0080344E072B6D2E90010D2E9024304
:103F6800096800682140184208D0137C03F0030355
:103F780009B143F0040343F0080305E0137C03F0A0
:103F8800030309B143F004039908013B11740D2B95
:103F98003FF668AF01A151F823F000BFA524000047
:103FA8009D2400001D2500009D240000C52200005E
:103FB800BD240000A5240000A5240000BD240000A5
:103FC800C52200009D2400001D2500009D2400003E
:103FD800A5240000137C03F0030309B143F0040394
:103FE8009908013B11740D2B3FF6F6AE01A151F86B
:103FF80023F000BF952400008D240000B5240000A4
:104008008D24000039220000AD2400009524000012
:1040180095240000AD240000392200008D24000002
:10402800B52400008D240000952400005369013B4D
:104038005361D2E6536901335361CEE65369013BBC
:10404800536110E75369013353610CE75369023B2D
:104058005361C2E6536902335361BEE65369023BBA
:10406800536100E7AFF30080FCA9F1D24D62503FE5
:10407800E8250020EC250020A4260020C6260020E4
:104088000000CC44DB0F49402817002038260020C8
:104098004011002050110020C726002008260020CB
:1040A800A826002092190020EC51E8433C26002065
:1040B8004811002058110020931900205369023339
:1040C8005361D0E610B5044608217E4802F0FCFD95
:1040D80034B1204605F024FF0146204602F0F4FDE5
:1040E8000721794802F0F0FD784B7948196800F00B
:1040F800D3FD0421774802F0E7FD774A137E012BB0
:1041080044D972B6536962B6744A127802B15B42F6
:1041180007EE903ADFED726A9FED727A0521F8EEAC
:10412800E77A6B4887EEA60A30EE000A20EE070A07
:10413800B7EEC00A00F0ECFD04216B4802F0C4FDA4
:104148006A4A137E012B34D972B6536962B6684A3B
:10415800127802B15B4207EE903ADFED666A9FED96
:10416800617A0521F8EEE77A594887EEA60A30EE1B
:10417800000A20EE070AB7EEC00A00F0C9FD54484D
:1041880000F096FDBDE81040FFF798BB72B6D2E983
:104198000034D2E902101B6824681940044245D053
:1041A800137C03F0030309B143F0040343F008034D
:1041B80042E072B6D2E90034D2E902101B682468E2
:1041C8001940044208D0137C03F0030309B143F0FB
:1041D800040343F0080305E0137C03F0030309B16B
:1041E80043F004039908013B11740D2BADD801A1CC
:1041F80051F823F0FD260000F52600001D270000D9
:10420800F5260000AB25000015270000FD2600005C
:10421800FD26000015270000AB250000F52600004C
:104228001D270000F5260000FD260000137C03F082
:10423800030309B143F004039908013B11740D2BE2
:104248003FF660AF01A151F823F000BFED26000052
:10425800E52600000D270000E52600006525000082
:1042680005270000ED260000ED26000005270000C8
:1042780065250000E52600000D270000E526000062
:10428800ED2600005369013B53613CE75369013354
:10429800536138E75369013B536157E75369013369
:1042A800536153E75369023B53612CE75369023367
:1042B800536128E75369023B536147E75369023367
:1042C800536143E74808002054080020E8250020EF
:1042D800141700205C080020EC250020C6260020CA
:1042E8000000CC44DB0F4940640800200826002069
:1042F80092190020EC51E84370B5002104460220D1
:104308002DED028BB0EE408A00F0AAFF00210420B8
:1043180000F0A6FF0021062001F06AFA002107201C
:1043280000F09EFF0021082000F09AFF00210A20DB
:1043380001F05EFA0023A64AA648A74903600B606D
:10434800137E012B40F2B98072B6536962B6A34A54
:10435800127802B15B4207EE903A9FEDA16AA14A3A
:10436800B8EEE77ADFEDA06A137EC7EE067A012B76
:1043780077EEA77A27EEA67A40F28C8072B6536958
:1043880062B69A4A127802B15B4207EE903ADFEDC4
:10439800985A9FED956A012CF8EEE76A954E964D6E
:1043A80086ED007AC6EEA57A77EEA77A67EE867A6A
:1043B800C5ED007A3DD078EE277A00210920C5EDB9
:1043C800007A00F04DFF01210C2000F049FF8B4BD3
:1043D80001218B4A197012688A498B4B0C601A604C
:1043E80000F014FF894B14211860894802F06CFC16
:1043F8002146884800F050FC0721874802F064FCF9
:10440800B7EEC80A0521834800F082FC05218348DD
:1044180002F05AFC95ED000AB7EEC00A05217D4866
:1044280000F076FC7B48BDEC028BBDE8704000F0E4
:104438003FBC38EE077A2146092086ED007A00F065
:104448000FFF00210C2000F00BFF6E4B6C4A6B49EC
:1044580012681C606C4B0C701A6000F0D7FE6B4B36
:10446800142118606A4802F02FFC2146694800F0C0
:1044780013FC0721684802F027FCB7EEC80A05219B
:10448800644800F045FC0521644802F01DFC96EDE7
:10449800000AC1E772B6D2E9003091681B6800686B
:1044A8001940D368184247D0137C03F0030309B1BD
:1044B80043F0040343F0080344E072B6D2E9003045
:1044C80091681B6800681940D368184208D0137CAB
:1044D80003F0030309B143F0040343F0080305E0C4
:1044E800137C03F0030309B143F004039908013B6B
:1044F80011740D2B3FF629AF01A151F823F000BF2D
:10450800092A0000012A0000292A0000012A0000C7
:10451800AB270000212A0000092A0000092A000010
:10452800212A0000AB270000012A0000292A0000E8
:10453800012A0000092A0000137C03F0030309B1D3
:1045480043F004039908013B11740D2B3FF617AF94
:1045580001A151F823F000BFF9290000F12900005A
:10456800192A0000F1290000DF270000112A0000A5
:10457800F9290000F9290000112A0000DF270000AE
:10458800F1290000192A0000F1290000F92900008A
:104598005369013B5361F3E6536901335361EFE615
:1045A8005369013B5361D1E6536901335361CDE649
:1045B8005369023B5361E3E6536902335361DFE613
:1045C8005369023B5361C1E6536902335361BDE647
:1045D800EC250020382600203C260020C626002096
:1045E8000000CC4408260020DB0F49409219002027
:1045F800EC51E843A4260020A8260020CC26002061
:1046080098260020E8250020442600203426002093
:10461800D808002014170020F0080020F80800200F
:10462800804B1A68002A53D0012A10B436D07E492C
:104638000A7E012A6AD972B64A6962B67B49097844
:1046480001B1524207EE902A9FED796ADFED796A4F
:10465800B8EEE77AC7EE067A77EEA77A67EEA67A1B
:104668001B68012B0CBF744B744B93ED007A744B91
:1046780077EE677A93ED007AF0EEE77AF4EEC77A90
:10468800F1EE10FA3DD96F4B6F4A1B6812689B1AFE
:10469800B3F57A7F30D25DF8044B70476B490A7ED8
:1046A800012A16D972B64A6962B66949097801B110
:1046B800524207EE902A9FED676ADFED5E6AB8EE18
:1046C800E77AC7EE067A77EEA77A67EEA67AC7E7A3
:1046D800704772B6D1E900248868126824681040CF
:1046E800CA6814425AD00A7C02F0030208B142F0A8
:1046F800040242F0080257E057485DF8044BFFF700
:10470800E1BC56485DF8044BFFF7DCBC72B6D1E952
:1047180000248868126824681040CA6814422DD0A2
:104728000A7C02F0030208B142F0040242F00802D7
:104738009008013A08740D2A3FF67EAF01A050F8A0
:1047480022F000BFF52B0000ED2B00006D2C0000BF
:10475800ED2B0000992A0000652C0000F52B0000C5
:10476800F52B0000652C0000992A0000ED2B0000B5
:104778006D2C0000ED2B0000F52B00000A7C02F0E8
:1047880003020028D4D042F00402D1E74A69013A72
:104798004A6152E74A6901324A614EE70A7C02F0EF
:1047A800030208B142F004029008013A08740D2A85
:1047B8003FF679AF01A050F822F000BF5D2C000051
:1047C800552C00007D2C0000552C0000072B000004
:1047D800752C00005D2C00005D2C0000752C00007D
:1047E800072B0000552C00007D2C0000552C0000E4
:1047F8005D2C00004A69013A4A6155E74A6901326D
:104808004A6151E74A69023A4A6116E74A6902323F
:104818004A6112E74A69023A4A6145E74A6902323F
:104828004A6141E7E8250020082600209219002067
:10483800EC51E843DB0F4940A4260020A8260020BD
:10484800281700209826002044260020EC25002068
:10485800C62600200000CC440809002000090020DA
:1048680030B5037883B00446092B03D114F8013F0F
:10487800092BFBD0202BF9D0002B35D03749204607
:1048880005F082F900284AD03549204605F07CF920
:10489800054658B323784D2B09D01321314802F02F
:1048A80013FA204605F03CFB014620462FE06278CB
:1048B800312A48D1A278202A45D10334012523780A
:1048C800092B03D114F8013F092BFBD0202BF9D079
:1048D800002301A92046019303F068FF019BA3422E
:1048E80029D02846FFF708FD03B030BDFEF7E6FFE4
:1048F80072B61D4B5D6162B672B61C4B5D6162B6E5
:1049080000231B4C1B4A0C211B482360136002F038
:10491800DBF91A4803B0BDE8304000F0C9B90C21F2
:10492800174802F0D1F9154800F0C2F903B0BDE804
:104938003040FEF7C3BF2721124802F0C5F90F48DF
:1049480000F0B6F9D0E74D2BA7D16378322BA4D16C
:10495800A378202BA1D103340225B0E76C080020EE
:10496800840800209C080020EC2500200826002050
:10497800A4260020A82600208C0800201417002058
:1049880074080020B008002070B5134C0026134DA1
:1049980002F030F9A8B102F071F92368C0B20A2810
:1049A80010D0A0F10D02B2FA82F2520952B92E2BA0
:1049B80003F101010ED82160E85402F01BF9002828
:1049C800E9D170BD002BE3D00448EE542660FFF710
:1049D80047FFDDE72260DBE7E4250020B42500205F
:1049E8002DE9F843594D40F2EE28594C594FDFF85C
:1049F800A4912E6802F0E6F92378002B00F092804B
:104A08003B78DA0740F18E802B68D9F800209B1A92
:104A18000E2B40F287804F4F40F6B736DFF874818F
:104A280002F0D0F92378002B00F087803B78DB0771
:104A380040F183802B68D8F800209B1A0E2B7CD974
:104A48001921454802F040F9444800F031F929217C
:104A5800434802F039F9414800F02AF91521414844
:104A680002F032F93D4800F023F929213E4802F0CE
:104A78002BF93A4800F01CF929213C4802F024F9A6
:104A8800364800F015F90121022000F013FC01213D
:104A9800042000F00FFC0121062000F00BFC01218E
:104AA800092000F007FC0121072000F003FC012188
:104AB800082000F0FFFB01210A2000F0FBFB012188
:104AC8000C2000F0F7FB9FED2A0A062000F0F6FE06
:104AD8009FED270A0A2000F0F1FE0A2000F0DEFF11
:104AE800FEF7ECFE72B6234B00245C6162B672B628
:104AF800214B5C6162B600232049214A0B60136098
:104B080000F084FB1F4B07212D6818601E4A1F4BBD
:104B18001F4815601C6002F0D7F81048BDE8F8433C
:104B280000F0C6B82B6822789B1B5AB1B3F5FA6F10
:104B38003FF671AF02F046F95CE72B68B3427FF6A7
:104B48006FAF7DE74345F5D965E700BF982600209C
:104B5800D4260020D3260020640C0020141700203F
:104B6800800C0020AC0C0020C40C0020F00C0020AD
:104B780000409C46EC25002008260020A4260020A2
:104B8800A826002034260020A02600204026002049
:104B98001C0D0020B426002008B5FFF7F5FE00F034
:104BA80035FB114A1368C31AB3F57A7F03D30F494B
:104BB80010600A681AB9BDE80840FEF799BF07EE09
:104BC800903A9FED070BB8EE677B87EE000BFFF777
:104BD800C7F8FFF725FDBDE80840FEF789BF00BF0D
:104BE8000000000080842E4134260020E8250020A3
:104BF8000E220D21044808B5FEF77AFD10220F2178
:104C08000248FEF775FD08BDEC25002008260020A7
:104C1800084602F043B800BF012A70B508BF0A224F
:104C28008AB091B34FF0210E01E05FFA86FE0EF1D3
:104C3800FF36B1FBF2F502FB15145FFA84FC092C70
:104C48000CF137040CF1300C98BF5FFA8CF40EF1BC
:104C5800280C88BFE4B29142EC4429460CF8244C55
:104C6800E3D24BB10EF1FF3E2D225FFA8EFE0EF11C
:104C780028036B4403F8242C036801A9CEF122020F
:104C88005B68714498470AB070BD30224FF0210E1E
:104C98008DF82520E5E700BF002903DB00230A2261
:104CA800FFF7BABF49422D230A22FFF7B5BF00BF5D
:104CB80000B5036883B040F60D2C022201A95B6899
:104CC800ADF804C0984703B05DF804FB054B022813
:104CD80088BF034610B41C68184663685DF8044B27
:104CE800184700BF141700205AB90368C9B2074A09
:104CF8001B68934200B506D108465DF804EB01F045
:104D0800CDBFFFF789BF5DF804EB1847713000008D
:104D1800B4EE400B70B5F1EE10FA05462DED028B9E
:104D280086B07CD6B0EEC07B9FED476BB4EE467B79
:104D3800F1EE10FA6BDC9FED467BB4EEC70BF1EE9B
:104D480010FA5ADC9FED447BB4EEC70BF1EE10FA73
:104D580053D4B5EEC00B0C46F1EE10FA5BD4002329
:104D6800B6EE007B002C5ED04FF0000C9FED3C6B44
:104D78000CF1010C27EE067B5FFA8CF2A242F7D306
:104D880030EE070B0A222846FCEEC07BB8EE678B94
:104D980017EE901A30EE488BFFF73EFF0F2C4FF0BE
:104DA8002E03B2EE046B064628BF0F248DF8083098
:104DB8000DF1090302AA611E53FA81F128EE060BD0
:104DC800FCEEC07BCDED017A9DF8043007EE903AF9
:104DD8003033B8EEE78B02F8013F914230EE488B52
:104DE800ECD12B68013402A928465B68E2B29847E7
:104DF800304606B0BDEC028B70BD2B6803221A4901
:104E08005B6806B0BDEC028BBDE8704018470368CC
:104E180003221649F4E7B1EE400B0123A0E703682B
:104E280003221349ECE730EE070B0A222846FCEE72
:104E3800C07B17EE901A06B0BDEC028BBDE870403F
:104E4800FFF7EABEAFF30080FFFFFFFFFFFFEF7F32
:104E5800000000E0FFFFEF41000000E0FFFFEFC1AE
:104E68009A9999999999B93F18090020140900202D
:104E780010090020A249A34B88422DE9F047A24C13
:104E88005E699A69D4F80C801BD9A04B984240F20D
:104E98000281C31A9E491B0AA1FB031340F2276132
:104EA800DB0903EB830303EB830303F2E2438B4247
:104EB80028BF0B46A3F54877964BA3FB0737FF0897
:104EC80004E0954FB8428CBF0E2706278D4908F09D
:104ED8001F09D1F88030B94543F0C003C1F88030CC
:104EE8000CD228F01F08A1F5F82148EA0708C1F8F4
:104EF8000C800B68002BFCDA08F01F0916F0007311
:104F080024D186490C698649A14300F0EA8082F4DD
:104F1800805134464FF4805514F0605F04D026F079
:104F280060561E43774B5E6111F4405F07D022F450
:104F3800405274492A438A618B6C1A07FCD446F0A4
:104F48000076704A5661936C9B06FCD4754CA0425F
:104F580000F2CE804FF0010C0146634603FB0112BC
:104F680003F1010E0CF10105A24218D8BEF1080F99
:104F78004FF0010340F08D80BCF1040F00F29180E6
:104F88000A18A24200F2A48005FB00F1AC4603F126
:104F9800010E03FB01120CF10105A242E6D90CF146
:104FA800FF318C0286EA81215F4810445F4A9042B3
:104FB8007FD9DFF8A4A16C225D48584DB0FBFEF004
:104FC800D5F800E0B0FBFCF0DFF890C10EEA0C0C5D
:104FD800D44509D042F400524FF4805CC5F800C0B3
:104FE8002A602A68002AFCDA464A156905F007058E
:104FF8009D4203D01361936CDD03FCD411F4E05F90
:1050080009D026F4E05604F4E0543E4A264356619B
:10501800936C9907FCD44749474A014491423CD8CC
:10502800464BC909A3FB0131090B4B1E1B0286EA3B
:10503800030212F4407F06D026F4407603F440734E
:10504800304A334353612F4A536923F00073536145
:10505800936C9B06FCD43A4B4F45A3FB00234FF0BF
:10506800FF324FEA9343B0FBF1F1B2FBF3F3354A59
:105078001060354A1160354A136008D228F01F08BD
:10508800214A48EA0707D7601368002BFCDABDE815
:10509800F087734662E7122718E74FF4407304213C
:1050A800C5E70CF1FF31204807238C02104486EA3B
:1050B8008121274ADFF8A8A0A2FB0020020D25487D
:1050C800362A38BF362202FB00F042EA0A0A74E7A1
:1050D8004FEA8C24002386EA8C214FF0010EAC465F
:1050E80062E71D4686F0C05411464FF0C05313E7DF
:1050F80000244FF0010C024631462346E64653E7AA
:1051080000A4781F00C00F40000008400046C323D9
:1051180023B24C001F85EB5100366E0100800D4014
:1051280040300080FFB19F26808D5B00FF7EF64DEA
:1051380000643F4D7FD1F0087F17B42C9F10E50025
:1051480083DE1B43101700200C1700209026002038
:10515800819F5E16001BB7006C2000807F300180A5
:105168000020008000B970472DE9F84F01218146E1
:10517800214C224D224E54E8003F2A68306844E80A
:105188000013002BF7D11F494B684FF47A7BDFF8E7
:1051980078A01B1A01270BFB02F8DAF80020A3FB02
:1051A80002325A4594BF9044D84454E8003F2A68D4
:1051B800306844E80073002BF7D14B68DAF800C078
:1051C8001B1A0BFB02F2A3FB0C3CBCF57A7F94BFC5
:1051D800624402F57A72A2EB0802B2F57A7F06D32E
:1051E800B9F1010908F57A78DFD1BDE8F88F01F047
:1051F800E9FD0449D9E700BF9C2600209826002035
:1052080094260020001000E09026002030B40F4BB8
:105218004FF0010C0E4D0F4C53E8002F2868216801
:1052280043E800C2002AF7D10B4B5B680B4A5B1AB4
:105238004FF47A71126801FB00F0A3FB023230BC14
:105248008A4294BF80184018704700BF9C260020EF
:105258009826002094260020001000E090260020C8
:10526800272816D80201104B03EB00109B5810B4E6
:10527800C2685C68144205D061B95DF8044BC3F894
:1052880088207047836851B1084A5DF8044B1A605A
:10529800704770475DF8044BC3F884207047044A90
:1052A8005DF8044B1A6070474409002038F001008B
:1052B80038300100272829D8164B0201012903EBB1
:1052C80000109A5810B45368C4680ED004290CD042
:1052D80023EA040353608368A9B1022917D003297C
:1052E8000CBF0D4A0D4A1A6007E023430129536099
:1052F800836808D040F638021A60436815225DF8C2
:10530800044B1A60704738221A60F6E77047044A5F
:105318001A60F2E744090020383001003800010023
:1053280038F00100704700BF272858D80001F0B4B2
:10533800344C354D2358AB4256D049D8B3F1844F3D
:105348004BD0A5F58045AB4240D1304D2044304E7E
:10535800304CC4F8B462D0E901C4C0684FF0E0260C
:105368004FF00057042AC6F810712FD85E6926EA54
:1053780000065E614FF00506CCF80060266846F42A
:10538800803626605C6824EA00045C60224C54F88D
:10539800224090FAA0F2B2FA82F245F822106FEA9F
:1053A80000011DD0DD690F2A01EA0501D9611DDC64
:1053B80052000325D968944005FA02F221EA020254
:1053C8002243DA6098615A6902435A61F0BC704717
:1053D800124DAB42FAD1124DB8E7124DB6E77047FD
:1053E800DA690243DA61EDE70F4DAFE7103A0325BA
:1053F80019695200944005FA02F221EA0202224396
:105408001A61DFE74409002000800042C01700202D
:1054180021000000001C00203408002000C00042C9
:10542800C0180020401700204018002008B5FFF7DA
:10543800D7FAFFF7B1FB01F0C5FCFAE7844641EA69
:10544800000313F003036DD1403A41D351F8043BF4
:1054580040F8043B51F8043B40F8043B51F8043B46
:1054680040F8043B51F8043B40F8043B51F8043B36
:1054780040F8043B51F8043B40F8043B51F8043B26
:1054880040F8043B51F8043B40F8043B51F8043B16
:1054980040F8043B51F8043B40F8043B51F8043B06
:1054A80040F8043B51F8043B40F8043B51F8043BF6
:1054B80040F8043B51F8043B40F8043B51F8043BE6
:1054C80040F8043B51F8043B40F8043B403ABDD255
:1054D800303211D351F8043B40F8043B51F8043BF7
:1054E80040F8043B51F8043B40F8043B51F8043BB6
:1054F80040F8043B103AEDD20C3205D351F8043B86
:1055080040F8043B043AF9D2043208D0D2071CBF51
:1055180011F8013B00F8013B01D30B88038060467A
:10552800704700BF082A13D38B078DD010F00303F0
:105538008AD0C3F10403D21ADB071CBF11F8013B60
:1055480000F8013B80D331F8023B20F8023B7BE7AF
:10555800043AD9D3013A11F8013B00F8013BF9D2DA
:105568000B7803704B7843708B7883706046704774
:1055780001F1FF3C70B56646002400E00134B0FB41
:10558800F2F502FB1503092B03F1370E03F1300383
:105598005FFA8EFE98BF5FFA83FE9042284606F8AF
:1055A80001EFEBD2631C0022C818CA547CB16246D2
:1055B8001CF8015F10F8016DA1EB0C0302328CF8A6
:1055C8000060013B521A057023449A42EFDB0846FB
:1055D80070BD00BF4FF0010C0CFA01FC01EB41015A
:1055E80000EB411170B5B1F80EE01FFA8CF5254CAF
:1055F8001FFA8EFE24782E010EFB033306F0F00608
:10560800E340B0F888417345A4B228BF73463443D9
:10561800012AA0F888410DD0022A28D0C2B10CF086
:105628000F02B0F888C11FFA8CFC4CEA020CA0F8F3
:1056380088C170BD9BB20CF00F022D02CB82B0F86E
:10564800803105F470659BB22B43A0F88031E8E700
:10565800AEEB030E0CF00F021FFA8EFEA1F80AE063
:10566800B0F880319BB21343A0F88031D9E79BB2E0
:105678000CF00F02CB83B0F880319BB21E43A0F828
:105688008061CEE79419002001EB4103F6EE006A31
:1056980000EB4313B3F80EC0314B1FFA8CFC93EDAB
:1056A800007AB8EE477A70B5C7EE007A4FF0010E6F
:1056B8004E000EFA01FE1FFA8EF577EEA67AFCEE82
:1056C800E77A17EE903AB3F5803F46D300224FF6BB
:1056D800FF745B080132A34201D9062AF9D91201E5
:1056E80042F4806292B2022B4FF6FF744FEA05151E
:1056F800314438BF02230EF00F0EEDB2A34200EB87
:10570800411128BF2346B0F88841A4B22C43A0F821
:105718008841CA805A1E92B2CA814A8992B203FB52
:1057280002F2B2FBFCF292B24A81CA8A92B203FB3D
:1057380002F2B2FBFCF292B2CA82CA8B92B202FBAC
:1057480003F3B3FBFCF39BB2CB83B0F888319BB275
:1057580043EA0E03A0F8883170BD4FF48062C2E7B7
:105768000C170020214BF6EE006A4FF6FE7C93EDF5
:10577800007AB8EE477AC7EE007A77EEA67AFCEEA2
:10578800E77A17EE903A63452CD900225B0801327C
:10579800634501D9062AF9D9083242F2260C4CEAA7
:1057A800422C1FFA8CFC022B00EB41114FF6FE70C5
:1057B80038BF02230A8A834292B228BF0346C888A8
:1057C80080B2C0F10110104403FB02F2B2FBF0F208
:1057D8009B1A92B2C3F101039BB2CB800A82A1F853
:1057E8000CC0704743F2260CDDE700BF0C17002001
:1057F80027284BD8F8B52A4D044615F8202005EB84
:105808008005012A2DD0022A3FD16B78C3F30110FD
:1058180003283ED0234A02EB803203F0030C2248CF
:1058280089B2634602EB4C1C0678BCF806E05801C6
:10583800BCF810301FFA8EFECEF1011E1EFA83F35B
:1058480003F1FF3E0EFB01F1F1408E4523D95B1AAF
:10585800C3F101039BB289B20244ACF8063011824D
:105868000DE06A78C2F30113032B10D00F4800EB48
:1058780083308BB202F00301AA78FFF7ABFE0C4B22
:10588800EA7803EB04135B681A60F8BD70470948AF
:10589800EFE7094AC1E7991E4FF6FF73DBE700BF40
:1058A800C40B002000C01D409419002000C03D40DA
:1058B8004409002000803E4000801E40272808D868
:1058C800154B13F8202003EB8003012A02D0022A8B
:1058D8000DD070475978C1F30112032A13D00F482D
:1058E80001F0030100EB82309A78FFF7CDBE5978BA
:1058F800C1F30113032B0CD0094800EB833001F0EE
:105908000301FFF72FBF074801F003019A78FFF75B
:10591800BBBE0548F3E700BFC40B002000C03D40F4
:1059280000C01D4000803E4000801E4000230F2222
:1059380048F2B82C194610B54FF470444FF4806EF5
:10594800A0F88C414FF46044A0F88E210A46A0F8D4
:105958009031B0F888319BB243F0F003A0F8883159
:1059680001EB4103013100EB431304299C80A3F8A8
:1059780006E05A841A865A805A81A3F80EC05A82C1
:10598800DA825A83DA83EBD1B0F888319BB243F0DC
:105998000F03A0F88831B0F888319BB243F47063E4
:1059A800A0F8883110BD00BF374B384A996F384886
:1059B80041F47F0170B5996741F20106D3F8801070
:1059C80045F6C05543F226040A43C3F88020FFF782
:1059D800ADFF00F58040FFF7A9FF00F58040FFF715
:1059E800A5FF00F58040FFF7A1FF0022A0F50310F6
:1059F8004FF00F0E114600EB42134FEA421C0132E2
:105A08009981042A5981A3F80EE09E82DD8020F84E
:105A18000C1019829C81EED100221E484FF00F0E07
:105A280041F20106114645F6C05543F2260400EB43
:105A380042134FEA421C01329981042A5981A3F882
:105A48000EE09E82DD8020F80C1019829C81EED138
:105A5800002211480F2641F20105114645F6C054AF
:105A680043F2260E00EB42134FEA421C01329981A1
:105A7800042A5981DE819D82DC8020F80C1019826D
:105A8800A3F80CE0EED170BD00C00F40000003FC8D
:105A980000C03D4000001E4000401E401028034644
:105AA800044A28BF10231078012B38BF0123137034
:105AB800704700BF9419002072B6EFF30583524C6B
:105AC800C4F884301EF0040F0CBFEFF30882EFF324
:105AD80009824FF0E0234D4E4D4DD3F8280DD3F8F1
:105AE8002C1DC4E92201D3F8341DD3F8383DC4E98C
:105AF80024139369C4F89830D369C4F89C3000F033
:105B0800D1F884ED280A01F0FDF90B214FF0FF329E
:105B1800C4F8A4000B46C4F880103E49301D5A4012
:105B2800202402F00103013C01FB03F383EA520243
:105B3800F7D1A84202D073680646EFE7324BC3F8A4
:105B4800A820BFF34F8F4FF0E0233049324AC3F803
:105B5800701FC3F8702FBFF34F8FBFF36F8F2F4A9B
:105B680002252F48D36E2F4943F44053D36605606E
:105B7800D3692D4823F07F0343F04003D3610B68BA
:105B880083423DD8264D00214FF0E0234FF0FF32ED
:105B980029600126C5F808112449C5F80011C5F87F
:105BA8000861C3F88021C3F88421C3F88821C3F8A9
:105BB8008C21C3F8902101E000F066F9D5F80C318A
:105BC800002BF9D00134C5F80C614F2CF4D9184BCF
:105BD800022018494FF00042C1F840015A63D5F835
:105BE8000C313BB9144815490D4A0163D2F80C3100
:105BF800002BFAD04FF0E023114AC3F80C2DFEE732
:105C0800FFF738F9BEE700BF00FF272080FF2720F5
:105C1800A8FF27202083B8EDA0FF272000C00F4051
:105C28000040084010170020803DCD0B009F240045
:105C380000900D4000002E4000800F40F100AD0B99
:105C48000400FA050A490A6838B108B51318094862
:105C5800834204D810460B6008BD1046704703F015
:105C680047FF0C234FF0FF320360104608BD00BF0A
:105C78002417002000002820002070474FF0FF3034
:105C8800704700BF4FF4005300204B60704700BFBF
:105C9800012070474FF0FF30704700BF30BFFDE76D
:105CA800FFF70ABF124AD2F880305B07FBD5D2F85B
:105CB80080301048C3F30B230F4990ED007A07EEAC
:105CC800903A91ED006AB8EE477A0C4AF8EEE77A16
:105CD8000B4BD2ED006A77EEC77A93ED007AB8EEF7
:105CE800477A67EE867A87EEA60A37EE400A70474B
:105CF80000810D4080260020882600208C26002068
:105D080084260020836BF0B41BB1536843F400432E
:105D1800536072B6446B3CB31A4B2260D3F8B0415F
:105D28000C421DD1184E776804E07468E41BB4F582
:105D3800166F0BD2D3F8404144F48044C3F8404175
:105D4800D3F8B851D3F840416404EED50D4007D1DB
:105D58000C4CC0E90225D4F8B0310B43C4F8B0317B
:105D6800426362B6F0BC7047064DC0E90224D5F81C
:105D7800B0310B43C5F8B0310263426362B6F0BC80
:105D8800704700BF00002E40001000E070B5056BA2
:105D98009DB106462A46002403E012680134012A10
:105DA8000CD0536813F08003F7D032632CB1284627
:105DB800B36B2D689847013CF9D170BDC6E90C3327
:105DC800F4E700BF30B4D9B91F4C204B0021204A5A
:105DD80001254FF0011099601D60C4E9023180244B
:105DE8005C60C2F8BC01D2F8B0311A482B43C2F843
:105DF800B0310160D2F8B031002BFBD130BC704714
:105E08000904154B104C012541F080019860104A97
:105E1800596000F580511D60D96000F50051A364F8
:105E2800196100F5405100F58040596100219861E1
:105E3800E164D2F8B03143F48033C2F8B031D2F81B
:105E4800B031002BFBD1C0E700000020C01E0020AD
:105E580000002E402C260020E01E002008490122C8
:105E68000B7802FA00F023EA0000087030B9054AFE
:105E7800D2F8483123F08003C2F84831704700BF98
:105E8800CF26002000002E402DE9F04F974C83B01C
:105E9800D4F84471FB07C4F8447153D5D4F8AC2145
:105EA800002A4AD0924EDFF860A2DFF87492DFF839
:105EB80074B2DFF87482C4F8AC21D6E90A20D4F8A9
:105EC800403143F40053C4F84031D4F840319D04C4
:105ED800F5D5D4F8403123F40053C4F840314FF0DD
:105EE8000113C4F8B431D4F8B45115F00115FAD13E
:105EF80093B28446CAF80050B3F5086F00F0CF811A
:105F080000F2DB8040F202318B4200F0E78100F2C0
:105F18009A80822B00F0CB81B3F5817F40F08A8094
:105F280010F0780F83B200F003824FF00113C4F829
:105F3800C031D4F8AC21002ABDD16C4AD2F8BC31AA
:105F4800002B42D17E0616D5684BD3F8AC21C3F896
:105F5800AC21D3F8BC21C3F8BC21D3F8B041002C44
:105F6800FBD14FF0FF32C3F8B421D3F8843100F0ED
:105F78002DFD604B1C60FC0103D55F4B1B6803B112
:105F88009847B80103D55D4B1B6803B1984779075B
:105F980008D5564BD3F8843113F4007347D0584BC7
:105FA80001221A70514BD3F848311A060AD53B061C
:105FB80008D5544A13782BB1013BDBB21370002B80
:105FC80000F0728203B0BDE8F08F4F49C2F8BC31CF
:105FD8000868034240F0D181464A14681C40B1D099
:105FE8005FEA144810D0424E4FF0010998FAA8F51C
:105FF800B5FA85F506EBC51009FA05F54030FFF747
:10600800C5FE38EA0508F1D1A4B2002C9AD0384E62
:106018004FF0010894FAA4F5B5FA85F506EBC5101A
:1060280008FA05F5FFF7B2FEAC43F3D18AE7344A24
:106038001370B7E7802B7FF478AF344802210580CE
:10604800FFF7C0FE75E7B3F5A06F00F00B81A3F56D
:10605800D063012B3FF669AF2D4B5D68002D3FF4EF
:1060680064AF1FFA8CFC4FEA124E04E01D690C3332
:10607800002D3FF45AAF1A887245F7D15A88624505
:10608800F4D14FEA1E22032A00F0A5811A89000CD8
:10609800824228BF0246BEF5007F40F0A181184B1E
:1060A8001C4918781C4B0192002818BF19461B4838
:1060B800FFF7C4F9194D019AE1E142F221218B421F
:1060C8007CD033D942F221318B4200F081804FF6E7
:1060D800C0018B427FF429AF10F47F4F83B27FF465
:1060E80024AF43F46E4363F30F0CB5E700002E4072
:1060F8000000002030260020B8260020BC26002002
:10610800D5260020D62600202C2600204826002050
:10611800940F0020D41A0060381B00600000202073
:10612800242600205DCFC6B8C0012E40B3F5106FFD
:1061380066D042F221018B427FF4F7AE030C072BA5
:106148007FF4F3AEB24BB349F560D960B249B3609E
:10615800C3F80890C1E9002001221A60AF4A5A60CA
:10616800AF4A1A61D4F8B01141F00101C4F8B01176
:1061780002F5805102F5005259619A61D4F8B031A4
:10618800002BFBD1A74AF36493600123B264136028
:1061980048F2800353604FF00113C4F8BC31D4F8BF
:1061A800B03143F48033C4F8B0314FF48033CAF8C7
:1061B8000030D4F8B031002BFBD1BAE680B238B940
:1061C800994BC2F307421968984B1960984B1A709B
:1061D800944B00229A60F2640122B3641A60802210
:1061E8005A604FF00113C4F8BC31D4F8B03143F40D
:1061F8008033C4F8B031D4F8B031002BFBD198E625
:10620800C2F307428B4B1A708B4BC4F8C8318B4BC7
:10621800C4F8CC318A4BC4F8D03100F0D9FB8022C5
:106228002946884802F024FE874B8022C6F8A0B091
:10623800C6F8E0307B4BF5645A600122B3649D6078
:106248001A604FF00113C4F8BC31D4F8B03143F4EC
:106258008033C4F8B031CAF80050D4F8B031002BFC
:10626800FBD166E66F4B0121F564196080219D60C2
:10627800B36459604FF00113C4F8BC31D4F8B0319D
:1062880043F48033C4F8B031D4F8B031002BFBD1DB
:10629800130C5B0643F08073C4F8543149E6654B30
:1062A80001216A481B780370FFF78CFD41E683B231
:1062B80010F078007FF439AE03F07F0258F822100E
:1062C800624A1080180600F19E80CB0701D5012391
:1062D800137002215D48FFF775FD2AE610F0780F6C
:1062E80083B27FF422AE03F07F0213F0800F58F8D8
:1062F800223014BF43F4803343F0010348F82230BE
:106308000022484BF2649A600122B3641A6080222A
:106318005A604FF00113C4F8BC31D4F8B03143F4DB
:106328008033C4F8B031D4F8B031002BFBD100E68B
:1063380003F07F0213F0800F58F8223014BF23F4C3
:10634800803323F0010348F822300022354BF264F1
:106358009A600122B3641A6080225A604FF00113D8
:10636800C4F8BC31D4F8B03143F48033C4F8B03148
:10637800D4F8B031002BFBD1DBE5002008602649BA
:106388000C88486842F221018C427FF425AE80B225
:1063980000287FF421AE2E492E4C03C9A1808628FF
:1063A8004FEA11412060A1717FF416AE72B62A48F7
:1063B800017841F008010170D2F848110D0605D4A2
:1063C80080200143C2F84401C2F8481162B6234A4A
:1063D8005021117000E6000C2A78824228BF02463C
:1063E800BEF5E06F44D11E4B1E4D18781E491F4B59
:1063F8000192002818BF19462846FFF71FF80723FF
:106408006B70019A3BE0C9033FF561AF61E700BFDC
:10641800E01E002024360020802000208000070095
:1064280024460020C01E002098260020B426002004
:10643800D3260020D42600200200CC00C800020089
:106448000200C800800000201993D5744826002057
:1064580024260020AC260020CF260020D6260020A7
:10646800D526002000002020381B0060D41A0060C8
:106478002946104D01922846FEF7E0FF019A25F0C3
:106488001F031544BFF34F8F4FF0E021C1F8703F51
:1064980020339D42FAD8BFF34F8FBFF36F8F054863
:1064A8001146FFF78FFC44E50320FFF7D7FC07F000
:1064B8003FFE00BF000020202DE9F0471F46831E45
:1064C800022B01D9BDE8F087DFF84C9015460C4641
:1064D8003C2209EBC01806464FEAC01A002108F111
:1064E8000400240402F0C4FCB5FA85F20123520921
:1064F80044EA427449F80A40C8F83870C8F80830C5
:10650800002FDFD0034AB34011680B431360BDE886
:10651800F08700BF30260020000000202DE9F0475A
:106528000D46811E022901D9BDE8F087C701DFF8B1
:106538004C909246044640373C2200211E4609EB07
:1065480007082D0408F1040002F092FCBAFA8AF256
:10655800520945EA427249F807200122C8F8386012
:10656800C8F80820002EDFD0034B10341968A24069
:106578000A431A60BDE8F08730260020000000209A
:1065880012048160C36101F5405342F0800210B4E7
:106598000124426001F50052046001F5805401F5C0
:1065A8008041C46081615DF8044BC0E904237047F1
:1065B800831E0A46022B00D97047064B00F11001D2
:1065C8004FF0010C03EBC0100CFA01F14030FFF75B
:1065D80099BB00BF00000020831E0A46022B00D989
:1065E80070470121024B814003EBC010FFF78ABBC3
:1065F8000000002040687047124A134BD2F820026E
:1066080020F07F40984210B584B002D200EB8000A1
:1066180040000E4C01A90A22FEF7AAFF01A9002397
:10662800204611F8012B01333AB10A2B20F8022F2A
:10663800F7D11623237004B010BD5B00DBB22370C2
:1066480004B010BD00441F40809698007C190020BB
:1066580000F0DCBA00F0ACBA00F010BB00F0CABA27
:1066680000F066BB00F03CBB0846114600F02CBBAE
:10667800F8B5144C4FF0E025134E4FF4003204EBFC
:106688004024124F06EB40160346C5F88C212146DC
:106698003A883046FFF774FF3B882344BFF34F8F97
:1066A800C5F85C4F2034A342FAD8BFF34F8FBFF32D
:1066B8006F8F03203146FFF78FFF4FF40033C5F883
:1066C8000C31F8BD80002020001F0020C0260020CB
:1066D800244B2DE9F0411C884368C569C3F30E4378
:1066E800E41A002C24DD204920480A780078D3B227
:1066F8001F4E82421F4807D010F8038036F81870E2
:10670800C7F50072944218D90133002226F81540C3
:10671800082B194E88BF134626F8152098BFDAB201
:10672800C554164B0A701A6814441C60BDE8F08101
:106738002846BDE8F041FFF79BBF07EB482010490A
:1067480022462744084401EB4521FEF777FE0B4A11
:10675800284626F8187013682344BDE8F0411360F2
:10676800FFF786BFC0260020CD260020CE260020B9
:10677800542600207426002064260020502600207D
:10678800800020201D4B1A78002A36D102F0FF0322
:106798001B4A12788AB32DE9F0411A4D2A8852B360
:1067A800194EC2F50068194F3278194C07EB421799
:1067B80004EBC224424638462146FFF7E1FE04EBCB
:1067C8000802BFF34F8F4FF0E023C3F8704F203417
:1067D800A242FAD8BFF34F8FBFF36F8F0420394618
:1067E800FFF7E6FE33780133DBB2032B88BF0023C3
:1067F800337000232B80BDE8F0817047D22600203B
:10680800D4260020C2260020D12600200020002007
:10681800801020202DE9F04F85B0CDE90110002926
:1068280000F0BF800023604CDFF89881DFF898A162
:106838005E4F009301235E4A23705E4B1978B8F8C7
:10684800003002EB4119002B40F0A7801E461D4680
:106858009B464846FFF7CEFE10F0800000F08C8083
:10686800BFF34F8F9AF8003084F800B005B93E683E
:10687800002B7DD13B689B1B782B00F287804E4B09
:106888001B78002B74D000F09DFA0122B8F8003074
:1068980015462270002BDCD0464AC3F500601178FB
:1068A8001A4600EBC120454DC9022844019D954276
:1068B80017D20393DDE901512A46FEF7BFFD039B7A
:1068C8004FF040425B1BA8F800303D4BC3F88420D2
:1068D800BFF34F8F009800232844237005B0BDE80C
:1068E800F08F364BCD180299FEF7A8FD00234FF420
:1068F800006229464846FFF743FEBFF34F8F05F174
:10690800200205F50063934234BF012340234FF072
:10691800E02205EB4313C2F8705F2035AB42FAD191
:10692800BFF34F8FBFF36F8F04204946FFF740FE38
:10693800204A13780133DBB2032B84BF00231D4A9E
:106948001370B8F80030019AD11A009A1A440191CC
:106958000092029A1A4400230292194AA8F80030B9
:10696800C2F88430BFF34F8F237000297FF462AFE1
:10697800009805B0BDE8F08F4FF400620D4B8AF81F
:10698800000019781346A8F800208AE70123009828
:106998008AF8003005B0BDE8F08F1A46C3F50060EC
:1069A8007FE70198E5E700BFD2260020982600205F
:1069B80000200020D1260020D4260020801020208E
:1069C80000002E40C2260020D0260020704700BFBD
:1069D8002D4B002180222D4870B51B7800242C4DAA
:1069E8008B422C4E0CBF40234FF400732B80338016
:1069F80002F03EFA284A2146284B14704FF4807260
:106A080027481C8002F034FA264A1021264B02201F
:106A1800C2E90044C2E90244244AC3E900441470AC
:106A2800234AC3E90244234B1C70234614602246C0
:106A3800FFF774FD2246318803201F4BFFF73CFD0A
:106A48002346012229880420FFF768FD20460134E7
:106A5800FFF70EFE082CF9D1184B00214A221848DE
:106A6800184C0460C3F88410C3F88020D3F8482178
:106A7800154942F08072C3F8482121B1134A1378AE
:106A880043F00103137070BDD526002000200020BC
:106A9800C4260020C0260020D1260020C2260020BF
:106AA800001F00205426002064260020CD26002048
:106AB80050260020CE260020314B000000002E403A
:106AC800B8260020E54B000000000000D726002073
:106AD8002DE9F04F4FF0E0234FF40032DFF8C8A063
:106AE80083B0C3F88C218B469AF8004000294FD018
:106AF8008046E4B20027DFF8B490264BABEB0702E0
:106B080025491B78A34204F101043FD0092C234BEB
:106B1800404628BF00241E5D39F816C00CEB4623FA
:106B280019441F4B33F81650A5EB0C05AA421CD28A
:106B38000CEB462C18491B4C61440192FEF77EFC75
:106B4800216839F816505846019AA1EB0B012A44DE
:106B5800394429F8162021604FF0E0234FF4003221
:106B6800C3F80C2103B0BDE8F08F2A462F44FEF786
:106B780065FC0C49E3B230460A68A844521B0A6017
:106B88008AF80030FFF774FDBB45B6D83846E3E70E
:106B98000846E1E7CD26002080002020742600204A
:106BA8005426002050260020CE26002064260020EF
:106BB8000B4B0C4A12781978D3B28A420DD00133A4
:106BC80009480A4A092B0A4928BF0023C35C31F83F
:106BD800131002EB4323585C70474FF0FF307047A7
:106BE800CD260020CE2600207426002080002020FC
:106BF80064260020044B10B51C680CB1204610BD5B
:106C080000F0E0F8204610BD502600202DE9F84F8E
:106C1800144E154D33782A78934221D0DCB2DFF830
:106C28005090DFF850B0DFF85080104F0134082C36
:106C38005FFA84FA01D90024A24619F80400DBF8A7
